:020000040800F2
:1000000000500020912D0008892900088B29000844
:100010008D2900088F2900089129000800000000A0
:10002000000000000000000000000000932900080C
:100030009529000800000000972900089929000868
:10004000D92D0008D92D0008D92D0008D92D000878
:10005000D92D0008D92D0008D92D0008D92D000868
:10006000D92D0008D92D0008D92D0008D92D000858
:10007000D92D0008D92D0008D92D0008D92D000848
:10008000D92D0008D92D0008D92D0008D92D000838
:10009000A1290008D92D0008D92D0008D92D000864
:1000A000D92D0008D92D0008D92D0008D92D000818
:1000B000D92D0008D92D0008D92D0008D92D000808
:1000C000D92D0008D92D0008D92D0008D92D0008F8
:1000D000D92D0008D92D0008D92D0008D92D0008E8
:1000E000D92D0008D92D0008D92D000800000000E6
:1000F0000000000000000000000000000000000000
:0C01000000000000000000005FF808F1A3
:10010C0010B5054C237833B9044B13B10448AFF345
:10011C0000800123237010BD44010020000000006A
:10012C00242E000808B5034B1BB103490348AFF359
:10013C00008008BD0000000048010020242E0008AB
:10014C0010B504460E4B18784FF47A73B3FBF0F3EA
:10015C000C4A1068B0FBF3F000F08EF868B90F2C65
:10016C0001D901200AE0002221464FF0FF3000F0B7
:10017C0041F8034B5C60002000E0012010BD00BF83
:10018C0000000020DC00002008B5074A136843F08B
:10019C0010031360032000F01BF80020FFF7D0FFC2
:1001AC0002F0CAFB002008BD00200240034A11687F
:1001BC00034B1B780B441360704700BF8001002079
:1001CC0000000020014B1868704700BF8001002020
:1001DC00074AD36823F4E0631B041B0C000200F4F1
:1001EC00E060184340F0BF6040F40030D0607047CE
:1001FC0000ED00E030B4174BDB68C3F30223C3F10E
:10020C000704042C28BF04241D1D062D18D9033BFC
:10021C004FF0FF3505FA04F421EA0401994005FA80
:10022C0003F322EA0303194300280BDB0901C9B2CB
:10023C0000F1604000F5614080F8001330BC70475D
:10024C000023E5E700F00F000901C9B2024B195475
:10025C00F4E700BF00ED00E014ED00E0002807DB40
:10026C0000F01F02400901239340024A42F820305B
:10027C00704700BF00E100E00138B0F1807F0AD286
:10028C00064B5860064AF02182F823100020986033
:10029C0007221A6070470120704700BF10E000E091
:1002AC0000ED00E0F0B587B0002873D0044690F85C
:1002BC002932D3B1032384F82932206800F0D5FF0A
:1002CC00254655F8107B6E460FCD0FC62B68336054
:1002DC00231D0ECB384600F0B9FF58B1022384F829
:1002EC0029320125284607B0F0BD80F8283202F0EB
:1002FC00B3FBDFE70021206800F0C1FF002311E011
:10030C0004EB4312012182F8291082F82830D3869D
:10031C00002182F82B109163D1639A1C5201A150D9
:10032C000133DBB260688342EAD3002312E004EBB2
:10033C004311002281F8292181F8283181F82B21E1
:10034C00C1F83821C1F83C2103F10A01490162507E
:10035C000133DBB29842EAD8254655F8107B6E463D
:10036C000FCD0FC62B683360231D0ECB384600F023
:10037C0088FF054620B1022384F829320125B1E714
:10038C00002384F82430012384F82932206801F0FA
:10039C00AAFAA7E70125A5E790F82832012B10D07F
:1003AC0010B50446012180F8281202F052FC206896
:1003BC0001F097FA206800F050FF002084F8280222
:1003CC0010BD0220704790F82832012B0DD010B5CB
:1003DC000446012380F8283280F82410006801F0CC
:1003EC007AFA002084F8280210BD0220704770B5FC
:1003FC0011F0800F23D101F007056D0105F5947400
:10040C0004440544002685F8296101F00701217098
:10041C002261E370627802B1E181022B1AD090F86C
:10042C002832012B19D00546012380F828322146A9
:10043C00006800F03CFF002085F8280270BD01F038
:10044C0007056D0105F1280404440544012685F8CF
:10045C002960DAE700232371E1E70220EEE710B50B
:10046C0011F0800F1CD101F007035B0103F59472AE
:10047C0002440344002483F8294101F0070313705C
:10048C0090F82832012B16D00446012380F828322C
:10049C001146006801F0BFF8002084F8280210BD56
:1004AC0001F007035B0103F1280202440344012419
:1004BC0083F82940E1E70220F1E770B501F0070568
:1004CC006C0104F5947101440444C4F83C2105F119
:1004DC000A025201861883500023736084F8293174
:1004EC0084F8285125B1006801F019FA002070BD7C
:1004FC00006801F014FAF9E770B501F007056C011A
:10050C0004F1280101440444E263AA1C5201861838
:10051C00835000237360012384F8293084F8285019
:10052C0025B1006801F0FBF9002070BD006801F0F6
:10053C00F6F9F9E7F8B504462068B0F8443013F43E
:10054C00004F00F0AD81B0F844309BB213F00F05B2
:10055C0040F0CD8013F0100F58D003889BB213F4E9
:10056C00006F40F0898013F4004FE5D0038823F02E
:10057C0070031B051B0D43F0800303802068B0F84B
:10058C00503094F8282103EBC203063300EB4303ED
:10059C00B3F80034C3F30903C4F844318BB1D4F875
:1005AC003C1171B1B4F82E2101F049FBD4F844216F
:1005BC00D4F83C311344C4F83C310021204602F0FD
:1005CC0073FA2368B3F850201344D4F83821002A66
:1005DC0074D1B3F80C2492B222F4F84292B2A3F87C
:1005EC000C24B3F80C2442F40042A3F80C24226827
:1005FC0013889BB223F4804323F0700383F440539D
:10060C0043F4004343F08003138095E703889BB2C7
:10061C0023F4E14323F070036FEA43436FEA53433F
:10062C009BB203802268B2F8503094F8281003EB88
:10063C00C103023302EB4303B3F80034C3F30903E1
:10064C006364E26B1344E3630021204602F036FA44
:10065C0094F82430002B3FF46FAF236C002B7FF405
:10066C006BAF94F82430226843F08003A2F84C302E
:10067C00002384F824305FE7B0F8503094F8282138
:10068C0003EBC203063300EB4303B3F80034C3F3AC
:10069C000903C4F84431B4F82E2104F50C7101F0AF
:1006AC00CEFA2268138823F070031B051B0D43F050
:1006BC0080031380204602F0EFF93DE73E2A09D86B
:1006CC00510812F0010F00D00131890289B2A3F850
:1006DC000C148CE7510912F01F0F00D101396FEA8D
:1006EC00C1626FEA524292B2A3F80C247FE730F851
:1006FC002560B6B216F4004F33D116F0800F3FF4DC
:10070C001BAF226832F825309BB223F4E14323F06F
:10071C0070036FEA43436FEA53439BB222F82530D0
:10072C002268B2F8503004EB451090F8281003EB17
:10073C00C103023302EB4303B3F80024C2F30902F2
:10074C00AB1C5B01E1184A60C16B0A44C263E358FD
:10075C00002B40F09D8090F82810204602F0AEF956
:10076C00EAE630F8253023F070031B051B0D43F02F
:10077C00800320F8253004EB451393F83431D3B9BA
:10078C002068B0F8503004EB451292F8282103EBA6
:10079C00C203063300EB4303B3F80074C7F3090735
:1007AC008FB304EB45113B46B1F82E21D1F83C1127
:1007BC0001F045FA27E0206804EB451393F8282153
:1007CC0030F8223013F4804F43D0B0F8503003EBA4
:1007DC00C203023300EB4303B3F80074C7F30907F9
:1007EC006FBB226804EB451393F8281132F82130C3
:1007FC009BB223F4E04323F0700343F4004343F033
:10080C00C00322F8213005F10A035B01E1184A68A4
:10081C003A444A6004EB4511D1F83C213A44C1F802
:10082C003C21E3581BB1D1F838118F4228D204EB8C
:10083C00451393F82811204602F036F95DE704EBD6
:10084C0045113B46B1F83021D1F83C1101F0F7F9D4
:10085C00C7E7B0F8503003EBC203063300EB430399
:10086C00B3F80074C7F30907002FBAD004EB451195
:10087C003B46B1F83221D1F83C1101F0E0F9B0E778
:10088C0004EB451191F828112046FFF716FE34E7CA
:10089C0004EB451595F828102046FFF72DFE4BE686
:1008AC000020F8BD10B50446006801F01EF810F4E5
:1008BC00004F45D1206801F018F810F4806F43D137
:1008CC00206801F012F810F4804F08D02268B2F8BA
:1008DC0044309BB223F480439BB2A2F8443020688E
:1008EC0001F003F810F4005F08D02268B2F844302D
:1008FC009BB223F400539BB2A2F84430206800F062
:10090C00F4FF10F4805F30D1206800F0EEFF10F49B
:10091C00006F49D1206800F0E8FF10F4007F6DD122
:10092C00206800F0E2FF10F4807F08D02268B2F853
:10093C0044309BB223F480739BB2A2F8443010BDB8
:10094C002046FFF7F7FDB5E72268B2F844309BB2BA
:10095C0023F480639BB2A2F84430204602F0BDF829
:10096C0000212046FFF72FFDAAE72268B2F840309D
:10097C009BB223F004039BB2A2F840302268B2F879
:10098C0040309BB223F008039BB2A2F840302046C3
:10099C0002F0C4F82268B2F844309BB223F48053BE
:1009AC009BB2A2F84430AFE72268B2F8403043F073
:1009BC000803A2F840302268B2F844309BB223F40A
:1009CC0000639BB2A2F844302268B2F8403043F086
:1009DC000403A2F84030206800F087FF10F4805F19
:1009EC0008D02268B2F844309BB223F480539BB2F7
:1009FC00A2F84430204602F081F88BE72268B2F866
:100A0C0044309BB223F400739BB2A2F844302046CE
:100A1C0002F05DF884E738B501F0070543689D42A4
:100A2C002CD811F0800F1AD14B0103F594710144AD
:100A3C000344002283F8292101238B700D7090F858
:100A4C002832012B1CD00446012380F82832006880
:100A5C0000F0CBFE65B1002084F828020FE06B019A
:100A6C0003F1280101440344012283F82920E3E720
:100A7C0004F50C71206800F03BFFECE7012038BD59
:100A8C000220FCE701F00F0243689A422DD810B502
:100A9C0011F0800F1ED101F007035B0103F5947276
:100AAC0002440344002483F829410023937001F08D
:100ABC000703137090F82832012B18D00446012339
:100ACC0080F828321146006800F0B4FE002084F84B
:100ADC00280210BD01F007035B0103F12802024458
:100AEC000344012483F82940DFE7012070470220EA
:100AFC00EFE711F0800F0CD001F00701490128310C
:100B0C0001445AB101220A730B811B0C4B8100204A
:100B1C007047490101F594710144F2E70A73CB80E7
:100B2C00F5E7000082B0084B1B68084AA2FB0323C0
:100B3C005B0A00FB03F0019000BF019B5A1E01925F
:100B4C00002BF9D102B07047DC000020D34D6210AD
:100B5C00002800F0F58170B582B00446036813F0EC
:100B6C00010F2CD0AB4B5B6803F00C03042B1DD096
:100B7C00A84B5B6803F00C03082B12D06368B3F529
:100B8C00803F41D0002B55D103F1804303F5043352
:100B9C001A6822F480321A601A6822F480221A60D1
:100BAC0037E09C4B5B6813F4803FE7D0994B1B6894
:100BBC0013F4003F03D06368002B00F0C38123685B
:100BCC0013F0020F76D0934B5B6813F00C0F5FD0D1
:100BDC00904B5B6803F00C03082B54D02369002B5B
:100BEC0000F08A808C4B01221A60FFF7EBFA054665
:100BFC00884B1B6813F0020F75D1FFF7E3FA401B0B
:100C0C000228F5D90320A0E1824A136843F480330B
:100C1C001360636843B3FFF7D5FA05467D4B1B6839
:100C2C0013F4003FCBD1FFF7CDFA401B6428F5D964
:100C3C0003208AE1B3F5A02F09D0764B1A6822F471
:100C4C0080321A601A6822F480221A60E1E703F1FC
:100C5C008043A3F53C331A6842F480221A601A6868
:100C6C0042F480321A60D4E7FFF7ACFA0546694BC0
:100C7C001B6813F4003FA2D0FFF7A4FA401B6428B2
:100C8C00F5D9032061E1634B5B6813F4803FA5D178
:100C9C00604B1B6813F0020F04D02369012B01D0A9
:100CAC00012052E15B4A136823F0F803616943EABF
:100CBC00C1031360236813F0080F32D0A369002B13
:100CCC005BD0564B01221A60FFF77CFA0546514B5C
:100CDC005B6A13F0020F21D1FFF774FA401B022854
:100CEC00F5D9032031E14B4A136823F0F80361690D
:100CFC0043EAC1031360DDE7474B00221A60FFF79C
:100D0C0061FA0546434B1B6813F0020FD2D0FFF774
:100D1C0059FA401B0228F5D9032016E10120FFF7F0
:100D2C0001FF236813F0040F00F09880394BDB6946
:100D3C0013F0805F33D1374BDA6942F08052DA61BD
:100D4C00DB6903F080530193019B0125344B1B6835
:100D5C0013F4807F25D0E368012B36D0002B4CD1C7
:100D6C0003F1804303F504331A6A22F001021A627C
:100D7C001A6A22F004021A622CE0284B00221A6034
:100D8C00FFF720FA0546234B5B6A13F0020FC8D01D
:100D9C00FFF718FA401B0228F5D90320D5E00025EF
:100DAC00D4E71F4A136843F480731360FFF70AFA01
:100DBC0006461B4B1B6813F4807FCCD1FFF702FA5D
:100DCC00801B6428F5D90320BFE0124A136A43F054
:100DDC0001031362E3687BB3FFF7F4F906460D4B8E
:100DEC001B6A13F0020F38D1FFF7ECF9801B41F2AC
:100DFC0088339842F3D90320A7E0052B12D0054B7A
:100E0C001A6A22F001021A621A6A22F004021A62A9
:100E1C00E0E700BF00100240000042428004424262
:100E2C00007000404C4B1A6A42F004021A621A6AB3
:100E3C0042F001021A62CDE7FFF7C4F90646464BB1
:100E4C001B6A13F0020F08D0FFF7BCF9801B41F2AC
:100E5C0088339842F3D9032077E0E5B9E369002B96
:100E6C0072D03D4A526802F00C02082A56D0022B6E
:100E7C0017D03A4B00221A60FFF7A4F90446364B00
:100E8C001B6813F0007F47D0FFF79CF9001B02286A
:100E9C00F5D9032059E0304AD36923F08053D3614C
:100EAC00DCE72E4B00221A60FFF78CF905462A4B23
:100EBC001B6813F0007F06D0FFF784F9401B022853
:100ECC00F5D9032041E0236AB3F5803F1AD02249BB
:100EDC004B6823F47413226A606A024313434B6019
:100EEC001E4B01221A60FFF76DF904461A4B1B6862
:100EFC0013F0007F0ED1FFF765F9001B0228F5D91E
:100F0C00032022E0144A536823F40033A1680B43F6
:100F1C005360DCE7002018E0002016E0012B16D00F
:100F2C000D4B5B6803F48031226A914201D00120A1
:100F3C000BE003F47013626A93420AD0012004E0C0
:100F4C0001207047012000E0002002B070BD01209C
:100F5C00FBE70020F9E700BF0010024060004242AE
:100F6C0010B487B0164C94E80F000DF1180C0CE976
:100F7C000F00238AADF80430124B5B6803F00C02AF
:100F8C00082A1AD1C3F38342624412F8102C13F4CA
:100F9C00803F05D10C4800FB02F007B010BC704735
:100FAC00084B5B68C3F34043634413F8143C074895
:100FBC0000FB02F0B0FBF3F0EFE70448EDE700BFF5
:100FCC003C2E00080010024000093D0000127A007F
:100FDC00002800F0A38070B50446524B1B6803F048
:100FEC0007038B420CD24F4A136823F007030B43C1
:100FFC001360136803F007038B4201D0012070BD0E
:10100C00236813F0020F17D013F0040F04D0464AD4
:10101C00536843F4E0635360236813F0080F04D063
:10102C00414A536843F4605353603F4A536823F07A
:10103C00F003A068034353600D46236813F0010FBF
:10104C0031D06368012B20D0022B25D0364A126890
:10105C0012F0020F64D034494A6822F003021343A1
:10106C004B60FFF7AFF806462F4B5B6803F00C03A1
:10107C006268B3EB820F16D0FFF7A4F8801B41F225
:10108C0088339842F0D90320B9E7274A126812F442
:10109C00003FE0D10120B2E7234A126812F0007F32
:1010AC00D9D10120ABE71F4B1B6803F00703AB4200
:1010BC000CD91C4A136823F007032B4313601368E5
:1010CC0003F00703AB4201D0012098E7236813F02B
:1010DC00040F06D0144A536823F4E063E1680B4311
:1010EC005360236813F0080F07D00F4A536823F49A
:1010FC006053216943EAC1035360FFF731FF0A4B88
:10110C005B68C3F30313094AD35CD840084B1860DF
:10111C00084B1868FFF714F8002070E7012070479F
:10112C0001206CE70020024000100240502E000805
:10113C00DC0000200400002070B582B00446036877
:10114C0013F0010F34D03E4BDB6913F0805F48D1B4
:10115C003B4BDA6942F08052DA61DB6903F0805371
:10116C000193019B0125374B1B6813F4807F3AD008
:10117C00334B1B6A13F4407311D0626802F4407253
:10118C009A420CD02E4A136A23F440702E49012641
:10119C000E6000260E60106213F0010F37D1284A42
:1011AC00136A23F4407361680B431362002D3FD123
:1011BC00236813F0020F06D0214A536823F44043EE
:1011CC00A1680B435360236813F0100F35D01C4AF1
:1011DC00536823F48003E1680B435360002002B092
:1011EC0070BD0025BFE7174A136843F48073136082
:1011FC00FEF7E8FF0646134B1B6813F4807FB7D14C
:10120C00FEF7E0FF801B6428F5D90320E7E7FEF723
:10121C00D9FF06460A4B1B6A13F0020FBFD1FEF72B
:10122C00D1FF801B41F288339842F3D90320D6E7D3
:10123C00D36923F08053D361BAE70020CFE700BF16
:10124C0000100240007000404004424284B001A8EB
:10125C0080E80E00002004B07047B0F8403043F432
:10126C003F43A0F8403000207047B0F8403023F4E2
:10127C007C535B045B0CA0F84030002070470020CE
:10128C00704784B038B505AC84E80E000123A0F893
:10129C0040300024A0F84040A0F84440A0F8504052
:1012AC00FFF7DBFF2046BDE8384004B0704730B490
:1012BC0003460C7830F8242092B222F4EC4222F04F
:1012CC00700292B2C87803285AD8DFE800F04D5566
:1012DC000251002048F280052A4323F824200C7880
:1012EC0033F8242092B222F4E04222F0700222431E
:1012FC002A4323F824200A7B002A40F0B1804A7844
:10130C00002A4ED0B3F850201A440C7802EB041289
:10131C00CC8864086400A2F800440C7833F82420CC
:10132C0012F0400F0CD033F8242092B222F4E04299
:10133C0022F0700242F4004242F0C00223F8242052
:10134C00CA78012A1ED0097833F8212092B222F4EF
:10135C00E04222F0400282F0200242F4004242F0CD
:10136C00800223F8212060E042F400720020B1E7F3
:10137C0042F4C0620020ADE742F480620020A9E78D
:10138C000120A7E7097833F8212092B222F4E04239
:10139C0022F0400242F4004242F0800223F8212065
:1013AC0043E0B3F850201A440C7802EB0412CC88BA
:1013BC0064086400A2F80844B3F850201A440C786E
:1013CC0002EB04120C6994BBB2F80C44A4B224F4E2
:1013DC00F844A4B2A2F80C44B2F80C4444F400440F
:1013EC00A2F80C440C7833F8242012F4804F0CD063
:1013FC0033F8242092B222F4E04222F0700242F43C
:10140C00404242F0800223F82420097833F821204E
:10141C0092B222F4804222F0700282F4405242F4E2
:10142C00004242F0800223F8212030BC70473E2C51
:10143C0009D8650814F0010F00D00135AD02ADB22A
:10144C00A2F80C54CEE7650914F01F0F00D1013D32
:10145C006FEAC5646FEA5444A4B2A2F80C44C1E725
:10146C000C7833F8242092B222F4E04222F070027D
:10147C0042F4014242F0800223F82420B3F85020B9
:10148C001A440C7802EB04120C8964086400A2F86C
:10149C000044B3F850201A440C7802EB04124C8927
:1014AC0064086400A2F808444A78002A4ED10C78EB
:1014BC0033F8242012F4804F0CD033F8242092B24D
:1014CC0022F4E04222F0700242F4404242F08002E8
:1014DC0023F824200C7833F8242012F0400F0CD081
:1014EC0033F8242092B222F4E04222F0700242F44B
:1014FC00004242F0C00223F824200C7833F8242058
:10150C0092B222F4E04222F0700242F4004242F025
:10151C00C00223F824200D7833F8252092B222F44F
:10152C00804222F0700282F4405248F2800422433E
:10153C0023F82520097833F8212092B222F4E042D6
:10154C0022F04002224323F821206EE70C7833F876
:10155C00242012F4804F0CD033F8242092B222F4C1
:10156C00E04222F0700242F4404242F0800223F842
:10157C0024200C7833F8242012F0400F0CD033F8D0
:10158C00242092B222F4E04222F0700242F4004293
:10159C0042F0C00223F824200C7833F8242092B2B5
:1015AC0022F4E04222F0700242F4404242F0800207
:1015BC0023F82420CA78012A1ED00C7833F8242072
:1015CC0092B222F4E04222F0400282F0200242F475
:1015DC00004242F0800223F82420097833F82120BD
:1015EC0092B222F4804222F0700242F4004242F0A5
:1015FC00800223F8212018E70C7833F8242092B2CB
:10160C0022F4E04222F0400242F4004242F0800216
:10161C0023F82420E1E70B7B002B46D14B7813B346
:10162C000A7830F8223013F0400F0CD030F822300A
:10163C009BB223F4E04323F0700343F4004343F0E4
:10164C00C00320F822300A7830F822309BB223F401
:10165C00E04323F0400343F4004343F0800320F8BD
:10166C002230002070470A7830F8223013F4804F73
:10167C000CD030F822309BB223F4E04323F07003FB
:10168C0043F4404343F0800320F822300A7830F8CA
:10169C0022309BB223F4804323F0700343F40043C5
:1016AC0043F0800320F82230DBE710B44B78002B9A
:1016BC004ED10A7830F8223013F4804F0CD030F829
:1016CC0022309BB223F4E04323F0700343F44043F5
:1016DC0043F0800320F822300A7830F8223013F0DF
:1016EC00400F0CD030F822309BB223F4E04323F0AF
:1016FC00700343F4004343F0C00320F822300A780F
:10170C0030F822309BB223F4E04323F0700343F40F
:10171C00004343F0C00320F822300B7830F823202C
:10172C0092B222F4804222F0700248F280042243EA
:10173C0020F823200A7830F822309BB223F4E043BF
:10174C0023F04003234320F82230002010BC7047C4
:10175C000A7830F8223013F4804F0CD030F8223055
:10176C009BB223F4E04323F0700343F4404343F073
:10177C00800320F822300A7830F8223013F0400F22
:10178C000CD030F822309BB223F4E04323F07003EA
:10179C0043F4004343F0C00320F822300A7830F8B9
:1017AC0022309BB223F4E04323F0700343F4404314
:1017BC0043F0800320F822300B7830F8232092B2CB
:1017CC0022F4E04222F0400248F28004224320F846
:1017DC0023200A7830F822309BB223F4804323F084
:1017EC007003234320F82230AFE74B788BB90A788B
:1017FC0030F822309BB223F4804323F0700383F43F
:10180C00805343F4004343F0800320F8223000203F
:10181C0070470A7830F822309BB223F4E04323F06F
:10182C00400383F0100343F4004343F0800320F89B
:10183C002230ECE70B7B002B4BD14B7833B30A787F
:10184C0030F8223013F0400F0CD030F822309BB21D
:10185C0023F4E04323F0700343F4004343F0C0034C
:10186C0020F82230CB78012B33D00A7830F8223094
:10187C009BB223F4E04323F0400383F0200343F4B2
:10188C00004343F0800320F8223022E00A7830F83D
:10189C00223013F4804F0CD030F822309BB223F45A
:1018AC00E04323F0700343F4404343F0800320F8FB
:1018BC0022300A7830F822309BB223F4804323F094
:1018CC00700383F4405343F4004343F0800320F847
:1018DC0022300020704711B98023A0F84C30002032
:1018EC0070470020704700207047B0F844007047E4
:1018FC000020704701335B0800EB420202F5806266
:10190C0063B110B40C78487844EA002422F8044BF4
:10191C000231013B002BF5D110BC7047704770B5FC
:10192C004E78012E33D08A690B699A4240F2FC80C2
:10193C00D21A8A610A7B002A40F01381B0F8502039
:10194C0002440C7802EB0412002B40F0F180B2F848
:10195C000C349BB223F4F8439BB2A2F80C34B2F8CB
:10196C000C3443F40043A2F80C340A7830F82230DB
:10197C009BB223F4804323F0700383F4405343F46D
:10198C00004343F0800320F82230002070BD8A69A8
:10199C000B699A4222D9D21A8A610C4605460A7BF7
:1019AC0002B30A7830F8221011F0400F72D0002EDA
:1019BC0040D1B0F85010014401EB02120BBBB2F84D
:1019CC000C1489B221F4F84189B2A2F80C14B2F8C3
:1019DC000C1441F40041A2F80C1433E000238B6189
:1019EC001346DAE79EB23346CA884969FFF782FF8D
:1019FC00B5F850302B44227803EB0213A3F804649F
:101A0C0037E03E2B09D8590813F0010F00D00131F3
:101A1C00890289B2A2F80C1414E0590913F01F0FB3
:101A2C0000D101396FEAC1616FEA514189B2A2F864
:101A3C000C1407E0B0F85010014401EB021299B2FB
:101A4C00A2F80C1462899BB261692846FFF752FF19
:101A5C006378002B57D1227835F822309BB223F4CF
:101A6C00E04323F0700343F4004343F0C00325F834
:101A7C002230227835F822309BB223F4E04323F055
:101A8C00400383F0300343F4004343F0800325F814
:101A9C0022307AE76EBBB0F85010014401EB021211
:101AAC0073B9B2F8041489B221F4F84189B2A2F8DE
:101ABC000414B2F8041441F40041A2F8041420E018
:101ACC003E2B09D8590813F0010F00D001318902BF
:101ADC0089B2A2F8041414E0590913F01F0F00D1B5
:101AEC0001396FEAC1616FEA514189B2A2F804145D
:101AFC0007E0B0F85010014401EB021299B2A2F8C1
:101B0C00041422899FE7012BB3D1227835F82230B7
:101B1C009BB223F4E04323F0700343F4404343F0BF
:101B2C00800325F82230A4E700238B61134601E7DC
:101B3C003E2B09D85C0813F0010F00D00134A4022D
:101B4C00A4B2A2F80C4410E75C0913F01F0F00D1EB
:101B5C00013C6FEAC4646FEA5444A4B2A2F80C448A
:101B6C0003E7A6B9B0F8502002440C7802EB04123B
:101B7C0033BBB2F80444A4B224F4F844A4B2A2F8DF
:101B8C000444B2F8044444F40044A2F804444A78EF
:101B9C00002A47D1B0F8502002440C7802EB041212
:101BAC003BBBB2F80C349BB223F4F8439BB2A2F8C3
:101BBC000C34B2F80C3443F40043A2F80C34D4E6E1
:101BCC003E2B09D85C0813F0010F00D00134A4029D
:101BDC00A4B2A2F80444DAE75C0913F01F0F00D199
:101BEC00013C6FEAC4646FEA5444A4B2A2F8044402
:101BFC00CDE73E2B09D85C0813F0010F00D001345F
:101C0C00A402A4B2A2F80C44AFE65C0913F01F0FB7
:101C1C0000D1013C6FEAC4636FEA53439BB2A2F854
:101C2C000C34A2E6012A7FF4A0AEB0F85020024496
:101C3C000C7802EB04129BB2A2F80C3495E630B48B
:101C4C005D0800EB420202F5806207E032F8044BBB
:101C5C00A4B20C70240A4C700231013D002DF5D158
:101C6C0013F0010F01D013880B7030BC70470000CB
:101C7C002923038000487047080000202923038093
:101C8C000048704734000020292303800048704727
:101C9C0060000020D0F8B83200201875704710B5DD
:101CAC00D0F8B8422369012B07D1D0F8BC32DB68DD
:101CBC0061782078984700232361002010BD000034
:101CCC000A230380004870478C00002038B5044676
:101CDC00D0F8B852D0F8BC32DB68697828789847CD
:101CEC0002232A460121204600F0A6FF002038BD21
:101CFC0010B582B0D0F8B8420023ADF806300B789E
:101D0C0013F060032ED0202B7FD14B78023B092B94
:101D1C0024D8DFE803F0140923232323231B0F0506
:101D2C008B786360002073E00122211D00F06AFDB6
:101D3C0000206DE04B881B0AA360002068E00122A4
:101D4C0004F1080100F05EFD002061E00123236135
:101D5C00CA88214600F06BFD002059E000F032FAF1
:101D6C00022055E04B780B2B4BD8DFE803F0064AEA
:101D7C004A4A4A4A154A4A4A2F3E90F89C32032B4B
:101D8C0006D102220DF1060100F03CFD00203FE0DF
:101D9C0000F018FA02203BE04B881B0A222B07D0DC
:101DAC00212B0DD000210A4600F02CFD00202FE045
:101DBC00CA88022A28BF0222D0F8BC321968F3E77D
:101DCC00CA88092A28BF09221249EDE790F89C32EB
:101DDC00032B06D1012204F10C0100F013FD0020AD
:101DEC0016E000F0EFF9022012E090F89C32032B81
:101DFC0003D18B78E36000200AE000F0E3F90220C5
:101E0C0006E000F0DFF9022002E000F0DBF902202E
:101E1C0002B010BD9800002038B50446812100F0B6
:101E2C00D0FE0025E5620121204600F0CAFEC4F870
:101E3C006C51D4F8B8324BB1D4F8BC329B6898478B
:101E4C00D4F8B80200F004FFC4F8B852002038BD32
:101E5C0070B5044602230322812100F0A7FE012560
:101E6C00E562022303222946204600F09FFEC4F8B7
:101E7C006C51182000F0E8FEC4F8B80270B10546A9
:101E8C0000260675D4F8BC325B68984702232A46B4
:101E9C000121204600F0D0FE304670BD0120FCE749
:101EAC0019B1C0F8BC12002070470220704798B1DD
:101EBC0008B50346D0F8B40210B10020C3F8B40240
:101ECC0009B1C3F8B0121846012380F89C32027095
:101EDC0000F02AFE002008BD0220704719B1C0F89E
:101EEC00B412002070470220704708B500F056FE6F
:101EFC00002008BD08B5D0F8B43233B11B68984740
:101F0C0008B9002008BD0220FCE70220FAE708B55A
:101F1C00D0F8B4325B689847002008BD38B5044649
:101F2C0000F52A75284600F039F90123C4F89432DB
:101F3C00B4F8AE32C4F8983294F8A81201F01F032A
:101F4C00012B0ED03BB1022B10D001F080012046AA
:101F5C0000F03FFE03E02946204600F0CCFA0020BA
:101F6C0038BD2946204600F0FAFAF8E72946204603
:101F7C0000F025FBF3E738B50446A1BB1046D4F8B6
:101F8C009432032B03D0052B24D0002037E0D4F857
:101F9C006031D4F8642193420DD99B1AC4F8603196
:101FAC009A4206D99AB20146204600F04FFC002016
:101FBC0025E092B2F7E7D4F8B4321B692BB194F850
:101FCC009C22032A01D120469847204600F046FC6B
:101FDC00002014E00025C4F894522946204600F055
:101FEC00F8FD28460BE00A46D0F8B4329B693BB1A9
:101FFC0090F89C12032905D111469847002038BD52
:10200C000220FCE70220FAE710B50446002953D160
:10201C001046D4F89432022B0CD0042B00D01BB9F0
:10202C008021204600F0D5FD94F8A032012B3FD042
:10203C0000204DE0236A626A93421DD8E169B1FB2E
:10204C00F2F302FB13132BB98A4203D8D4F898325B
:10205C0099421FD3D4F8B432DB682BB194F89C228C
:10206C00032A01D1204698478021204600F0B1FD7B
:10207C00204600F0FEFBD7E79A1A226292B2014684
:10208C00204600F0CCFB00231A461946204600F0EF
:10209C00D3FDC9E700221146204600F0C0FB002109
:1020AC00C4F898120B460A46204600F0C5FDBBE763
:1020BC00002084F8A0020BE00A46D0F8B4325B6929
:1020CC003BB190F89C12032905D11146984700208A
:1020DC0010BD0220FCE70220FAE770B5044640234D
:1020EC000022114600F062FD0125C4F8585140262B
:1020FC00C4F86461334600228021204600F056FD6E
:10210C00A561666284F89C520023C4F89432636023
:10211C00C4F8A432D4F8B8322BB1D4F8B4325B681A
:10212C00002120469847002070BD017400207047A4
:10213C0090F89C3280F89D32042380F89C32002069
:10214C00704790F89C32042B01D00020704790F817
:10215C009D3280F89C32F8E708B590F89C32032B3E
:10216C0001D0002008BDD0F8B432DB69002BF8D0C8
:10217C009847F6E7002302E00133DBB20130027826
:10218C00002AF9D11846704708B54B88012B00D0AE
:10219C0008BDC0F8A43200F061FBF9E70B780370BE
:1021AC004B7843708B78CA7803EB022343800B790E
:1021BC004A7903EB022383808B79CA7903EB0223E0
:1021CC00C380704710B50446802100F002FD002149
:1021DC00204600F0FEFC10BD30B583B005460C4621
:1021EC000023ADF806304A88130A013B062B00F297
:1021FC00A480DFE803F004182CA2A2869300D0F888
:10220C00B0321B680DF10601007C9847BDF8062022
:10221C001AB1E388002B40F09480E388002B00F087
:10222C009A8003B030BD037C43B9D0F8B4329B6ABA
:10223C000DF10600984702234370E7E7D0F8B4325B
:10224C00DB6A0DF10600984702234370DEE7D2B239
:10225C00052A52D8DFE802F003101D2A3744D0F8C3
:10226C00B0325B6823B10DF10601007C9847CDE7D5
:10227C002146FFF7A7FFD4E7D0F8B0329B6823B113
:10228C000DF10601007C9847C0E72146FFF79AFF45
:10229C00C7E7D0F8B032DB6823B10DF10601007C42
:1022AC009847B3E72146FFF78DFFBAE7D0F8B03275
:1022BC001B6923B10DF10601007C9847A6E7214666
:1022CC00FFF780FFADE7D0F8B0325B6923B10DF1B9
:1022DC000601007C984799E72146FFF773FFA0E7BA
:1022EC00D0F8B0329B6923B10DF10601007C984700
:1022FC008CE72146FFF766FF93E72146FFF762FF65
:10230C008FE7037C33B9D0F8B4325B6B0DF1060068
:10231C0098477BE72146FFF755FF82E7037C43B9DB
:10232C00D0F8B4321B6B0DF10600984707234370AD
:10233C006CE72146FFF746FF73E72146FFF742FFA4
:10234C006FE79A4228BF1A46ADF806200146284688
:10235C0000F058FA61E7284600F080FA61E738B5DA
:10236C0004468B88F3B9CB88E3B94B887F2B19D8FB
:10237C0003F07F0590F89C32032B0CD080F89E5212
:10238C00294600F049FC204600F068FA35B10223DA
:10239C0084F89C3209E0FFF715FF06E0012384F86E
:1023AC009C3202E02046FFF70DFF38BD38B50446DD
:1023BC000D468978284B197001290ED890F89C325B
:1023CC00022B0ED0032B21D02946FFF7FBFE224B0C
:1023DC0019782046FFF79BFD02E02946FFF7F2FE35
:1023EC0038BD81B14160032380F89C32FFF782FD38
:1023FC00022803D0204600F031FAF1E729462046A6
:10240C00FFF7E0FEECE700F029FAE9E789B1436851
:10241C0099421DD0D9B2FFF77AFD0F4B1978616044
:10242C002046FFF767FD02280DD0204600F016FA73
:10243C00D6E7022380F89C324160FFF768FD204606
:10244C0000F00CFACCE729462046FFF7BBFEC7E7A5
:10245C0000F004FAC4E700BF6001002008B5CB8887
:10246C00012B0BD190F89C329BB1022B09D9032B79
:10247C000FD10122011D00F0C5F901E0FFF7A2FE0A
:10248C0008BD0146002341F8083F012200F0BAF9CB
:10249C00F6E7FFF797FEF3E708B590F89C32013B9F
:1024AC00022B12D8CB88022B0CD10123C360D0F89D
:1024BC00A4320BB10323C360022200F10C0100F023
:1024CC00A1F908BDFFF77EFEFBE7FFF77BFEF8E7FF
:1024DC0008B590F89C32013B022B09D84B88012B94
:1024EC0000D008BD0023C0F8A43200F0B7F9F8E71B
:1024FC00FFF768FEF5E708B50B7803F06003202BB7
:10250C0005D0402B03D043B1FFF75CFE03E0D0F8BD
:10251C00B4329B689847002008BD4B78092B1BD818
:10252C00DFE803F011171A141A08051A0E0BFFF73F
:10253C0053FEF0E7FFF713FFEDE7FFF737FFEAE78E
:10254C00FFF78CFFE7E7FFF7A7FFE4E7FFF71CFEB9
:10255C00E1E7FFF7BDFFDEE7FFF734FEDBE738B559
:10256C0005460C460B7803F06003202B06D0402B5D
:10257C0004D01BB1FFF726FE002038BD95F89C3225
:10258C00013B022B16D82379012B0ED8D5F8B43287
:10259C009B68214628469847E388002BECD10028FD
:1025AC00EAD1284600F05AF9E6E721462846FFF71B
:1025BC0009FEE1E721462846FFF704FEDCE738B5C3
:1025CC0004468A880B7803F06003202B08D0D0B225
:1025DC00402B05D05BB12046FFF7F4FD002005E051
:1025EC00D4F8B4329B6820469847002038BD202B85
:1025FC0005D1D4F8B4329B6820469847F6E74B785F
:10260C00012B32D0002B5ED0032B40F0D88094F8F5
:10261C009C32022B06D0032B16D02046FFF7D2FD9E
:10262C000020E3E708B1802804D12046FFF7CAFD5B
:10263C000020DBE70146204600F0CBFA8021204643
:10264C0000F0C7FA0020D1E74B8823B918B18028D5
:10265C0001D0CB8823B1204600F000F90020C5E75B
:10266C000146204600F0B5FAF5E794F89C32022BAF
:10267C0006D0032B16D02046FFF7A4FD0020B5E7AB
:10268C0008B1802804D12046FFF79CFD0020ADE75F
:10269C000146204600F09DFA8021204600F099FA70
:1026AC000020A3E74B88002B40F08E8010F07F0FAA
:1026BC0004D1204600F0D2F8002097E701462046CE
:1026CC0000F08FFAF5E794F89C32022B06D0032B1E
:1026DC002AD02046FFF776FD002087E708B1802836
:1026EC0013D112F0800F15D100F07F0000EB8000A9
:1026FC00830003F5A8712144043100250D600222EA
:10270C00204600F07FF8284670E72046FFF75AFD78
:10271C0000206BE700F07F0000EB8000830003F1EA
:10272C00100121440431E8E752B2002A1FDB00F00B
:10273C000F0303EB83039D002544D5F8583123B3D5
:10274C00002A27DB00F07F0202EB8202930003F5E4
:10275C00A8752544043508B1802825D100232B60A9
:10276C0002222946204600F04DF800203EE700F0FA
:10277C000F0303EB83039D002544AB69002BDFD1D2
:10278C002046FFF71FFD002030E72046FFF71AFD1B
:10279C0000202BE700F07F0202EB8202930003F192
:1027AC00100525440435D6E70146204600F021FAF1
:1027BC0010B101232B60D3E700232B60D0E7204618
:1027CC00FFF700FD002011E700200FE7C8B170B53E
:1027DC000D4616460446FFF7CDFC01304000308014
:1027EC00287003236B70022307E001345A1CD2B209
:1027FC00E9540233DBB20021A95421780029F4D129
:10280C0070BD704710B513460222C0F89422C36104
:10281C0003620A46002100F007FA002010BD08B53B
:10282C0013460A46002100F0FFF9002008BD10B540
:10283C0013460322C0F89422C0F85C31C0F8603112
:10284C000A46002100F0F8F9002010BD08B5134627
:10285C000A46002100F0F0F9002008BD08B5042359
:10286C00C0F8943200231A46194600F0DDF9002016
:10287C0008BD08B50523C0F8943200231A46194642
:10288C0000F0DAF9002008BD82B00A4B9A6942F0D8
:10289C0020029A619A6902F020020092009A9A69C9
:1028AC0042F004029A619B6903F004030193019BBB
:1028BC0002B070470010024070B594B000240C9424
:1028CC000D940F941094059406940794089409940D
:1028DC00019402940394049401250A954FF48033D7
:1028EC000B930E950226119612934FF480131393AB
:1028FC000AA8FEF72DF90F230593069607944FF4BB
:10290C00806308930994294605A8FEF761FB102300
:10291C0001934FF48003049301A8FEF70DFC14B04F
:10292C0070BD08B5FDF730FCFFF7C6FFFFF7ACFF35
:10293C0000F05EF8FEE7704782B00E4B9A6942F0E9
:10294C0001029A619A6902F001020092009ADA6916
:10295C0042F08052DA61DB6903F080530193019BF2
:10296C00054A536823F0E06343F08063536002B080
:10297C00704700BF00100240000001407047FEE7A6
:10298C00FEE7FEE7FEE770477047704708B5FDF7B6
:10299C000DFC08BD08B50248FDF784FF08BD00BF5B
:1029AC00480400200F4B1A6842F001021A60596863
:1029BC000D4A0A405A601A6822F0847222F480325E
:1029CC001A601A6822F480221A605A6822F4FE02F5
:1029DC005A604FF41F029A60044B4FF000629A60E9
:1029EC00704700BF001002400000FFF800ED00E04F
:1029FC0008B500220F491048FFF759FA70B90F4972
:102A0C000D48FFF76BFA60B90D490B48FFF748FA10
:102A1C0050B90948FFF769FA48B908BDFFF78BFFB1
:102A2C00EDE7FFF788FFEFE7FFF785FFF1E7FFF72B
:102A3C0082FFF2E72801002084010020A40000207E
:102A4C00E000002018B1022803D0022070470020BB
:102A5C00704701207047000002680E4B9A4200D06C
:102A6C00704700B583B003F5DA33DA6942F400023B
:102A7C00DA61DB6903F400030193019B0022114628
:102A8C001420FDF7B7FB1420FDF7E8FB03B05DF84D
:102A9C0004FB00BF005C004008B500F50C71D0F8D9
:102AAC006802FFF73BFA08BD08B500EB4113D3F8F9
:102ABC003C21D0F86802FFF75EFA08BD08B500EBC0
:102ACC004113DA6BD0F86802FFF79EFA08BD08B51F
:102ADC00D0F86802FFF740FB08BD10B504468368C8
:102AEC00022B01D0FFF727FF0121D4F86802FFF772
:102AFC001CFBD4F86802FFF7F0FA10BD10B50446C1
:102B0C00D0F86802FFF714FBA36923B1024A1369DA
:102B1C0043F00603136110BD00ED00E008B5D0F8DA
:102B2C006802FFF70EFB08BD10B504461948C0F843
:102B3C006842C4F8C002184B0360082343600223A8
:102B4C00836000238361C3610362FDF7ABFBE8B9CB
:102B5C00182300221146D4F8C002FDF7CAFF5823EF
:102B6C0000228021D4F8C002FDF7C3FF9823002275
:102B7C008121D4F8C002FDF7BCFFD823002201212B
:102B8C00D4F8C002FDF7B5FF002010BDFFF7D3FE4F
:102B9C00DEE700BF48040020005C004008B5D0F818
:102BAC00C002FDF7F9FBFFF74DFF08BD10B51C4641
:102BBC0013462246D0F8C002FDF719FCFFF742FF7E
:102BCC0010BD08B5D0F8C002FDF749FCFFF73AFF7D
:102BDC0008BD08B5D0F8C002FDF71DFFFFF732FFA6
:102BEC0008BD08B5D0F8C002FDF74CFFFFF72AFF6F
:102BFC0008BDD0F8C03211F0800F06D101F07F0172
:102C0C0003EB411191F82A01704701F07F0103EBAE
:102C1C00411191F82A00704708B5D0F8C002FDF7B1
:102C2C00D2FBFFF70FFF08BD08B5D0F8C002FDF7C7
:102C3C0063FCFFF707FF08BD08B5D0F8C002FDF72D
:102C4C003CFCFFF7FFFE08BD004870476401002004
:102C5C007047704700207047002070470020704775
:102C6C0012230B8000487047F400002004230B80D3
:102C7C0000487047080100200023934216D230B45C
:102C8C000BE0373401F8134000015C0001340025DF
:102C9C000D550133DBB2934206D2040F092CF0D848
:102CAC00303401F81340EFE730BC70477047000038
:102CBC0038B50B4B186804331C6804331B68C018F8
:102CCC0000D138BD074D082205F11A01FFF7D4FFDA
:102CDC00042205F12A012046FFF7CEFFF1E700BFE1
:102CEC00E8F7FF1FF400002008B51A230B80FFF74C
:102CFC00DFFF014808BD00BF0C01002008B50A46E3
:102D0C0028B105490548FFF761FD034808BD024994
:102D1C000248FFF75BFDF8E7B4060020682E0008B8
:102D2C0010B5044C0A4621460348FFF74FFD2046D8
:102D3C0010BD00BFB4060020882E000808B50A4656
:102D4C0028B105490548FFF741FD034808BD024974
:102D5C000248FFF73BFDF8E7B40600209C2E000864
:102D6C0008B50A4628B105490548FFF72FFD034869
:102D7C0008BD02490248FFF729FDF8E7B406002018
:102D8C00B02E0008002103E00B4B5B58435004317C
:102D9C000A480B4B42189A42F6D30A4A02E0002327
:102DAC0042F8043B084B9A42F9D3FFF7FBFD00F0C5
:102DBC000FF8FFF7B6FD7047D02E0008000000207A
:102DCC004401002044010020B4080020FEE700006C
:102DDC0070B500250C4E0D4CA41BA410A54209D1B6
:102DEC0000F01AF800250A4E0A4CA41BA410A542A8
:102DFC0005D170BD56F8253098470135EEE756F8E9
:102E0C00253098470135F2E7C82E0008C82E000877
:102E1C00C82E0008CC2E0008F8B500BFF8BC08BCC2
:102E2C009E467047F8B500BFF8BC08BC9E4670477C
:102E3C0002030405060708090A0B0C0D0E0F1010EF
:102E4C000102000000000000000000000102030469
:102E5C0006070809000000000102030453544D3317
:102E6C003220437573746F6D2048756D616E2069E7
:102E7C006E746572666163650000000053544D69A1
:102E8C0063726F656C656374726F6E696373000057
:102E9C00437573746F6D2048494420436F6E6669A7
:102EAC0067000000437573746F6D204849442049D6
:0C2EBC006E7465726661636500000000C2
:042EC80031010008CC
:042ECC000D010008EC
:102ED000010000001000000009022900010100C0EB
:102EE0003209040000020300000009211101000161
:102EF0002202000705810302000507050103020005
:102F00000500000009022900010100C03209040087
:102F10000002030000000921110100012202000744
:102F200005810302000507050103020005000000FA
:102F300009022900010100C0320904000002030057
:102F4000000009211101000122020007058103028E
:102F50000005070501030200050000000A06000243
:102F600000000040010000000921110100012202BF
:102F7000000000005D1E0008251E0008FD1C000862
:102F800000000000AB1C0008A11C0008D91C0008B0
:102F9000000000000000000000000000891C000884
:102FA0007D1C0008951C0008CD1C00080024F400BE
:102FB000F0000020612C0008652C0008692C000836
:102FC00000C00000120100020000004083045057BE
:102FD0000002010203010000040309041A030000B7
:102FE00000000000000000000000000000000000E1
:102FF00000000000000000006D2C0008792C000883
:103000002D2D0008092D0008F52C0008492D000879
:043010006D2D00081A
:0400000508002D9131
:00000001FF
